{
  "address": "0x8574903F48b2c9750FE3efD4cF0B98cD0dc6151C",
  "abi": [
    {
      "inputs": [
        {
          "internalType": "contract ERC721Base",
          "name": "baseFactory",
          "type": "address"
        },
        {
          "internalType": "string",
          "name": "name",
          "type": "string"
        },
        {
          "internalType": "string",
          "name": "symbol",
          "type": "string"
        },
        {
          "internalType": "uint16",
          "name": "royaltyBps",
          "type": "uint16"
        }
      ],
      "stateMutability": "nonpayable",
      "type": "constructor"
    },
    {
      "stateMutability": "payable",
      "type": "fallback"
    },
    {
      "inputs": [
        {
          "internalType": "uint256",
          "name": "",
          "type": "uint256"
        }
      ],
      "name": "burn",
      "outputs": [],
      "stateMutability": "pure",
      "type": "function"
    },
    {
      "inputs": [],
      "name": "nftImplementation",
      "outputs": [
        {
          "internalType": "contract ERC721Base",
          "name": "",
          "type": "address"
        }
      ],
      "stateMutability": "view",
      "type": "function"
    },
    {
      "inputs": [],
      "name": "setup",
      "outputs": [],
      "stateMutability": "nonpayable",
      "type": "function"
    },
    {
      "stateMutability": "payable",
      "type": "receive"
    }
  ],
  "transactionHash": "0x5511bb5b211a8b81574beb9ad3f8abc4b4b024eaac7b9673ff872e3c0d515859",
  "args": [
    "0x3Be479A0e8D5732BE5051Bfe6833CC98722f2C1b",
    "TEST",
    "testing",
    1000
  ],
  "solcInputHash": "5ebfd5e2e0f56a95728923bf5c29bb48",
  "bytecode": "0x608060405234801561001057600080fd5b506040516107d03803806107d083398101604081905261002f91610289565b620186a080546001600160a01b0319166001600160a01b0386169081179091556040516301ffc9a760e01b815263d653026160e01b600482015285918591859185916301ffc9a79060240160206040518083038186803b15801561009257600080fd5b505afa1580156100a6573d6000803e3d6000fd5b505050506040513d601f19601f820116820180604052508101906100ca9190610325565b6101085760405162461bcd60e51b81526004016100ff906020808252600490820152632161706960e01b604082015260600190565b60405180910390fd5b6000846001600160a01b03163385858560405160240161012b949392919061037a565b60408051601f198184030181529181526020820180516001600160e01b0316636f58bf9360e11b1790525161016091906103c6565b600060405180830381855af49150503d806000811461019b576040519150601f19603f3d011682016040523d82523d6000602084013e6101a0565b606091505b50509050806101ae57600080fd5b5050505050505050506103e2565b634e487b7160e01b600052604160045260246000fd5b60005b838110156101ed5781810151838201526020016101d5565b838111156101fc576000848401525b50505050565b600082601f83011261021357600080fd5b81516001600160401b038082111561022d5761022d6101bc565b604051601f8301601f19908116603f01168101908282118183101715610255576102556101bc565b8160405283815286602085880101111561026e57600080fd5b61027f8460208301602089016101d2565b9695505050505050565b6000806000806080858703121561029f57600080fd5b84516001600160a01b03811681146102b657600080fd5b60208601519094506001600160401b03808211156102d357600080fd5b6102df88838901610202565b945060408701519150808211156102f557600080fd5b5061030287828801610202565b925050606085015161ffff8116811461031a57600080fd5b939692955090935050565b60006020828403121561033757600080fd5b8151801515811461034757600080fd5b9392505050565b600081518084526103668160208601602086016101d2565b601f01601f19169290920160200192915050565b6001600160a01b038516815260806020820181905260009061039e9083018661034e565b82810360408401526103b0818661034e565b91505061ffff8316606083015295945050505050565b600082516103d88184602087016101d2565b9190910192915050565b6103df806103f16000396000f3fe6080604052600436106100385760003560e01c806342966c681461004c578063ba0bba401461006c578063f61ac58b1461008157610042565b3661004257600080fd5b61004a6100bf565b005b34801561005857600080fd5b5061004a61006736600461030b565b6100f1565b34801561007857600080fd5b5061004a610131565b34801561008d57600080fd5b50620186a0546100a3906001600160a01b031681565b6040516001600160a01b03909116815260200160405180910390f35b620186a0546001600160a01b03163660008037600080366000845af43d6000803e8080156100ec573d6000f35b3d6000fd5b60405162461bcd60e51b815260206004820152601060248201526f109d5c9b881b9bdd08185b1b1bddd95960821b60448201526064015b60405180910390fd5b306001600160a01b0316638da5cb5b6040518163ffffffff1660e01b815260040160206040518083038186803b15801561016a57600080fd5b505afa15801561017e573d6000803e3d6000fd5b505050506040513d601f19601f820116820180604052508101906101a29190610324565b6001600160a01b0316336001600160a01b0316146101ee5760405162461bcd60e51b81526020600482015260096024820152682737ba1037bbb732b960b91b6044820152606401610128565b61022760405180604001604052806018815260200177687474703a2f2f6e6f6e2d6275726e61626c652e6170692f60401b81525061024a565b6102323360006102a2565b61023d3360016102a2565b6102483360026102a2565b565b6040516355f804b360e01b815230906355f804b39061026d908490600401610354565b600060405180830381600087803b15801561028757600080fd5b505af115801561029b573d6000803e3d6000fd5b5050505050565b306040516340c10f1960e01b81526001600160a01b0384811660048301526024820184905291909116906340c10f1990604401600060405180830381600087803b1580156102ef57600080fd5b505af1158015610303573d6000803e3d6000fd5b505050505050565b60006020828403121561031d57600080fd5b5035919050565b60006020828403121561033657600080fd5b81516001600160a01b038116811461034d57600080fd5b9392505050565b600060208083528351808285015260005b8181101561038157858101830151858201604001528201610365565b81811115610393576000604083870101525b50601f01601f191692909201604001939250505056fea2646970667358221220492c7dd0d164240d21036d14b30da285af77f5b153f8886fb8b51834774f89f864736f6c63430008090033",
  "devdoc": {
    "kind": "dev",
    "methods": {},
    "version": 1
  },
  "userdoc": {
    "kind": "user",
    "methods": {},
    "notice": "This custom NFT contract is straight-forward   except for disabling the burn function by override This uses the openzeppelin style solidity contract abi",
    "version": 1
  },
  "storageLayout": {
    "storage": [
      {
        "astId": 2142,
        "contract": "contracts/ChildNFTNoBurn.sol:ChildNFTNoBurn",
        "label": "______gap",
        "offset": 0,
        "slot": "0",
        "type": "t_array(t_uint256)100000_storage"
      },
      {
        "astId": 2145,
        "contract": "contracts/ChildNFTNoBurn.sol:ChildNFTNoBurn",
        "label": "nftImplementation",
        "offset": 0,
        "slot": "100000",
        "type": "t_contract(ERC721Base)2653"
      }
    ],
    "types": {
      "t_array(t_uint256)100000_storage": {
        "base": "t_uint256",
        "encoding": "inplace",
        "label": "uint256[100000]",
        "numberOfBytes": "3200000"
      },
      "t_contract(ERC721Base)2653": {
        "encoding": "inplace",
        "label": "contract ERC721Base",
        "numberOfBytes": "20"
      },
      "t_uint256": {
        "encoding": "inplace",
        "label": "uint256",
        "numberOfBytes": "32"
      }
    }
  }
}