{
  "address": "0x3Be479A0e8D5732BE5051Bfe6833CC98722f2C1b",
  "abi": [
    {
      "inputs": [],
      "stateMutability": "nonpayable",
      "type": "constructor"
    },
    {
      "anonymous": false,
      "inputs": [
        {
          "indexed": true,
          "internalType": "address",
          "name": "owner",
          "type": "address"
        },
        {
          "indexed": true,
          "internalType": "address",
          "name": "approved",
          "type": "address"
        },
        {
          "indexed": true,
          "internalType": "uint256",
          "name": "tokenId",
          "type": "uint256"
        }
      ],
      "name": "Approval",
      "type": "event"
    },
    {
      "anonymous": false,
      "inputs": [
        {
          "indexed": true,
          "internalType": "address",
          "name": "owner",
          "type": "address"
        },
        {
          "indexed": true,
          "internalType": "address",
          "name": "operator",
          "type": "address"
        },
        {
          "indexed": false,
          "internalType": "bool",
          "name": "approved",
          "type": "bool"
        }
      ],
      "name": "ApprovalForAll",
      "type": "event"
    },
    {
      "anonymous": false,
      "inputs": [
        {
          "indexed": true,
          "internalType": "address",
          "name": "previousOwner",
          "type": "address"
        },
        {
          "indexed": true,
          "internalType": "address",
          "name": "newOwner",
          "type": "address"
        }
      ],
      "name": "OwnershipTransferred",
      "type": "event"
    },
    {
      "anonymous": false,
      "inputs": [
        {
          "indexed": true,
          "internalType": "address",
          "name": "from",
          "type": "address"
        },
        {
          "indexed": true,
          "internalType": "address",
          "name": "to",
          "type": "address"
        },
        {
          "indexed": true,
          "internalType": "uint256",
          "name": "tokenId",
          "type": "uint256"
        }
      ],
      "name": "Transfer",
      "type": "event"
    },
    {
      "inputs": [
        {
          "internalType": "address",
          "name": "to",
          "type": "address"
        },
        {
          "internalType": "uint256",
          "name": "tokenId",
          "type": "uint256"
        }
      ],
      "name": "approve",
      "outputs": [],
      "stateMutability": "nonpayable",
      "type": "function"
    },
    {
      "inputs": [
        {
          "internalType": "address",
          "name": "owner",
          "type": "address"
        }
      ],
      "name": "balanceOf",
      "outputs": [
        {
          "internalType": "uint256",
          "name": "",
          "type": "uint256"
        }
      ],
      "stateMutability": "view",
      "type": "function"
    },
    {
      "inputs": [
        {
          "internalType": "uint256",
          "name": "tokenId",
          "type": "uint256"
        }
      ],
      "name": "burn",
      "outputs": [],
      "stateMutability": "nonpayable",
      "type": "function"
    },
    {
      "inputs": [],
      "name": "deployedBlock",
      "outputs": [
        {
          "internalType": "uint256",
          "name": "",
          "type": "uint256"
        }
      ],
      "stateMutability": "view",
      "type": "function"
    },
    {
      "inputs": [
        {
          "internalType": "uint256",
          "name": "tokenId",
          "type": "uint256"
        }
      ],
      "name": "exists",
      "outputs": [
        {
          "internalType": "bool",
          "name": "",
          "type": "bool"
        }
      ],
      "stateMutability": "view",
      "type": "function"
    },
    {
      "inputs": [
        {
          "internalType": "uint256",
          "name": "tokenId",
          "type": "uint256"
        }
      ],
      "name": "getApproved",
      "outputs": [
        {
          "internalType": "address",
          "name": "",
          "type": "address"
        }
      ],
      "stateMutability": "view",
      "type": "function"
    },
    {
      "inputs": [
        {
          "internalType": "address",
          "name": "newOwner",
          "type": "address"
        },
        {
          "internalType": "string",
          "name": "_name",
          "type": "string"
        },
        {
          "internalType": "string",
          "name": "_symbol",
          "type": "string"
        },
        {
          "internalType": "uint16",
          "name": "_royaltyBps",
          "type": "uint16"
        }
      ],
      "name": "initialize",
      "outputs": [],
      "stateMutability": "nonpayable",
      "type": "function"
    },
    {
      "inputs": [
        {
          "internalType": "address",
          "name": "_owner",
          "type": "address"
        },
        {
          "internalType": "address",
          "name": "operator",
          "type": "address"
        }
      ],
      "name": "isApprovedForAll",
      "outputs": [
        {
          "internalType": "bool",
          "name": "",
          "type": "bool"
        }
      ],
      "stateMutability": "view",
      "type": "function"
    },
    {
      "inputs": [
        {
          "internalType": "address",
          "name": "spender",
          "type": "address"
        },
        {
          "internalType": "uint256",
          "name": "tokenId",
          "type": "uint256"
        }
      ],
      "name": "isApprovedOrOwner",
      "outputs": [
        {
          "internalType": "bool",
          "name": "",
          "type": "bool"
        }
      ],
      "stateMutability": "view",
      "type": "function"
    },
    {
      "inputs": [
        {
          "internalType": "address",
          "name": "to",
          "type": "address"
        },
        {
          "internalType": "uint256",
          "name": "tokenId",
          "type": "uint256"
        }
      ],
      "name": "mint",
      "outputs": [],
      "stateMutability": "nonpayable",
      "type": "function"
    },
    {
      "inputs": [],
      "name": "name",
      "outputs": [
        {
          "internalType": "string",
          "name": "",
          "type": "string"
        }
      ],
      "stateMutability": "view",
      "type": "function"
    },
    {
      "inputs": [],
      "name": "owner",
      "outputs": [
        {
          "internalType": "address",
          "name": "",
          "type": "address"
        }
      ],
      "stateMutability": "view",
      "type": "function"
    },
    {
      "inputs": [
        {
          "internalType": "uint256",
          "name": "tokenId",
          "type": "uint256"
        }
      ],
      "name": "ownerOf",
      "outputs": [
        {
          "internalType": "address",
          "name": "",
          "type": "address"
        }
      ],
      "stateMutability": "view",
      "type": "function"
    },
    {
      "inputs": [],
      "name": "renounceOwnership",
      "outputs": [],
      "stateMutability": "nonpayable",
      "type": "function"
    },
    {
      "inputs": [],
      "name": "royaltyBps",
      "outputs": [
        {
          "internalType": "uint16",
          "name": "",
          "type": "uint16"
        }
      ],
      "stateMutability": "view",
      "type": "function"
    },
    {
      "inputs": [
        {
          "internalType": "uint256",
          "name": "",
          "type": "uint256"
        },
        {
          "internalType": "uint256",
          "name": "_salePrice",
          "type": "uint256"
        }
      ],
      "name": "royaltyInfo",
      "outputs": [
        {
          "internalType": "address",
          "name": "receiver",
          "type": "address"
        },
        {
          "internalType": "uint256",
          "name": "royaltyAmount",
          "type": "uint256"
        }
      ],
      "stateMutability": "view",
      "type": "function"
    },
    {
      "inputs": [
        {
          "internalType": "address",
          "name": "from",
          "type": "address"
        },
        {
          "internalType": "address",
          "name": "to",
          "type": "address"
        },
        {
          "internalType": "uint256",
          "name": "tokenId",
          "type": "uint256"
        }
      ],
      "name": "safeTransferFrom",
      "outputs": [],
      "stateMutability": "nonpayable",
      "type": "function"
    },
    {
      "inputs": [
        {
          "internalType": "address",
          "name": "from",
          "type": "address"
        },
        {
          "internalType": "address",
          "name": "to",
          "type": "address"
        },
        {
          "internalType": "uint256",
          "name": "tokenId",
          "type": "uint256"
        },
        {
          "internalType": "bytes",
          "name": "_data",
          "type": "bytes"
        }
      ],
      "name": "safeTransferFrom",
      "outputs": [],
      "stateMutability": "nonpayable",
      "type": "function"
    },
    {
      "inputs": [
        {
          "internalType": "address",
          "name": "operator",
          "type": "address"
        },
        {
          "internalType": "bool",
          "name": "approved",
          "type": "bool"
        }
      ],
      "name": "setApprovalForAll",
      "outputs": [],
      "stateMutability": "nonpayable",
      "type": "function"
    },
    {
      "inputs": [
        {
          "internalType": "string",
          "name": "_baseURI",
          "type": "string"
        }
      ],
      "name": "setBaseURI",
      "outputs": [],
      "stateMutability": "nonpayable",
      "type": "function"
    },
    {
      "inputs": [
        {
          "internalType": "bytes4",
          "name": "interfaceId",
          "type": "bytes4"
        }
      ],
      "name": "supportsInterface",
      "outputs": [
        {
          "internalType": "bool",
          "name": "",
          "type": "bool"
        }
      ],
      "stateMutability": "view",
      "type": "function"
    },
    {
      "inputs": [],
      "name": "symbol",
      "outputs": [
        {
          "internalType": "string",
          "name": "",
          "type": "string"
        }
      ],
      "stateMutability": "view",
      "type": "function"
    },
    {
      "inputs": [
        {
          "internalType": "uint256",
          "name": "tokenId",
          "type": "uint256"
        }
      ],
      "name": "tokenURI",
      "outputs": [
        {
          "internalType": "string",
          "name": "",
          "type": "string"
        }
      ],
      "stateMutability": "view",
      "type": "function"
    },
    {
      "inputs": [],
      "name": "totalSupply",
      "outputs": [
        {
          "internalType": "uint256",
          "name": "",
          "type": "uint256"
        }
      ],
      "stateMutability": "view",
      "type": "function"
    },
    {
      "inputs": [
        {
          "internalType": "address",
          "name": "from",
          "type": "address"
        },
        {
          "internalType": "address",
          "name": "to",
          "type": "address"
        },
        {
          "internalType": "uint256",
          "name": "tokenId",
          "type": "uint256"
        }
      ],
      "name": "transferFrom",
      "outputs": [],
      "stateMutability": "nonpayable",
      "type": "function"
    },
    {
      "inputs": [
        {
          "internalType": "address",
          "name": "newOwner",
          "type": "address"
        }
      ],
      "name": "transferOwnership",
      "outputs": [],
      "stateMutability": "nonpayable",
      "type": "function"
    }
  ],
  "transactionHash": "0x4f4de9b2fef0e60d55d8478b0f410d3e375b7a195e2d265d2dc8a68416df6cd6",
  "args": [],
  "solcInputHash": "5ebfd5e2e0f56a95728923bf5c29bb48",
  "bytecode": "0x60a060405234801561001057600080fd5b5043608052608051611e3361003060003960006102ec0152611e336000f3fe608060405234801561001057600080fd5b506004361061016e5760003560e01c80636352211e116100ce578063a22cb46511610087578063a22cb4651461031e578063b88d4fde14610331578063c63adb2b14610344578063c87b56dd14610365578063deb17f2614610378578063e985e9c51461038b578063f2fde38b1461039e57600080fd5b80636352211e146102b957806370a08231146102cc578063715018a6146102df57806382ea7bfe146102e75780638da5cb5b1461030e57806395d89b411461031657600080fd5b80632a55205a1161012b5780632a55205a1461021557806340c10f191461024757806342842e0e1461025a57806342966c681461026d578063430c2081146102805780634f558e791461029357806355f804b3146102a657600080fd5b806301ffc9a71461017357806306fdde031461019b578063081812fc146101b0578063095ea7b3146101db57806318160ddd146101f057806323b872dd14610202575b600080fd5b6101866101813660046116ab565b6103b1565b60405190151581526020015b60405180910390f35b6101a36103f7565b6040516101929190611720565b6101c36101be366004611733565b610489565b6040516001600160a01b039091168152602001610192565b6101ee6101e9366004611768565b610516565b005b60c9545b604051908152602001610192565b6101ee610210366004611792565b610627565b6102286102233660046117ce565b610659565b604080516001600160a01b039093168352602083019190915201610192565b6101ee610255366004611768565b6106ba565b6101ee610268366004611792565b6106ff565b6101ee61027b366004611733565b61071a565b61018661028e366004611768565b610781565b6101866102a1366004611733565b61079e565b6101ee6102b436600461189c565b6107a9565b6101c36102c7366004611733565b6107df565b6101f46102da3660046118d1565b610856565b6101ee6108dd565b6101f47f000000000000000000000000000000000000000000000000000000000000000081565b6101c3610918565b6101a3610931565b6101ee61032c3660046118ec565b610940565b6101ee61033f366004611928565b610a01565b60ca546103529061ffff1681565b60405161ffff9091168152602001610192565b6101a3610373366004611733565b610a39565b6101ee6103863660046119a4565b610aad565b610186610399366004611a32565b610b49565b6101ee6103ac3660046118d1565b610b8e565b600063152a902d60e11b6001600160e01b0319831614806103e2575063d653026160e01b6001600160e01b03198316145b806103f157506103f182610c2e565b92915050565b60606065805461040690611a65565b80601f016020809104026020016040519081016040528092919081815260200182805461043290611a65565b801561047f5780601f106104545761010080835404028352916020019161047f565b820191906000526020600020905b81548152906001019060200180831161046257829003601f168201915b5050505050905090565b600061049482610c7e565b6104fa5760405162461bcd60e51b815260206004820152602c60248201527f4552433732313a20617070726f76656420717565727920666f72206e6f6e657860448201526b34b9ba32b73a103a37b5b2b760a11b60648201526084015b60405180910390fd5b506000908152606960205260409020546001600160a01b031690565b6000610521826107df565b9050806001600160a01b0316836001600160a01b0316141561058f5760405162461bcd60e51b815260206004820152602160248201527f4552433732313a20617070726f76616c20746f2063757272656e74206f776e656044820152603960f91b60648201526084016104f1565b336001600160a01b03821614806105ab57506105ab8133610b49565b6106185760405162461bcd60e51b815260206004820152603860248201527f4552433732313a20617070726f76652063616c6c6572206973206e6f74206f776044820152771b995c881b9bdc88185c1c1c9bdd995908199bdc88185b1b60421b60648201526084016104f1565b6106228383610c9b565b505050565b610632335b82610d09565b61064e5760405162461bcd60e51b81526004016104f190611aa0565b610622838383610dd3565b60008080610665610918565b6001600160a01b031614156106875761067c610918565b6000915091506106b3565b61068f610918565b60ca54612710906106a49061ffff1686611b07565b6106ae9190611b3c565b915091505b9250929050565b3330146106d95760405162461bcd60e51b81526004016104f190611b50565b6106e38282610f61565b600160c960008282546106f69190611b77565b90915550505050565b61062283838360405180602001604052806000815250610a01565b6107233361062c565b61075d5760405162461bcd60e51b815260206004820152600b60248201526a139bdd08185b1b1bddd95960aa1b60448201526064016104f1565b61076681611082565b600160c960008282546107799190611b8f565b909155505050565b600061078d8383610d09565b8061079757503330145b9392505050565b60006103f182610c7e565b3330146107c85760405162461bcd60e51b81526004016104f190611b50565b80516107db9060cb9060208401906115fc565b5050565b6000818152606760205260408120546001600160a01b0316806103f15760405162461bcd60e51b815260206004820152602960248201527f4552433732313a206f776e657220717565727920666f72206e6f6e657869737460448201526832b73a103a37b5b2b760b91b60648201526084016104f1565b60006001600160a01b0382166108c15760405162461bcd60e51b815260206004820152602a60248201527f4552433732313a2062616c616e636520717565727920666f7220746865207a65604482015269726f206164647265737360b01b60648201526084016104f1565b506001600160a01b031660009081526068602052604090205490565b336108e6610918565b6001600160a01b03161461090c5760405162461bcd60e51b81526004016104f190611ba6565b610916600061110b565b565b600061092c6097546001600160a01b031690565b905090565b60606066805461040690611a65565b6001600160a01b0382163314156109955760405162461bcd60e51b815260206004820152601960248201527822a9219b99189d1030b8383937bb32903a379031b0b63632b960391b60448201526064016104f1565b336000818152606a602090815260408083206001600160a01b03871680855290835292819020805460ff191686151590811790915590519081529192917f17307eab39ab6107e8899845ad3d59bd9653f200f220920489ca2b5937696c31910160405180910390a35050565b610a0b3383610d09565b610a275760405162461bcd60e51b81526004016104f190611aa0565b610a338484848461115d565b50505050565b6060610a4482610c7e565b610a7b5760405162461bcd60e51b81526020600482015260086024820152672737903a37b5b2b760c11b60448201526064016104f1565b60cb610a8683611190565b604051602001610a97929190611bf7565b6040516020818303038152906040529050919050565b600054610100900460ff1680610ac6575060005460ff16155b610ae25760405162461bcd60e51b81526004016104f190611c9e565b600054610100900460ff16158015610b04576000805461ffff19166101011790555b610b0e848461128e565b610b16611315565b610b1f85610b8e565b60ca805461ffff191661ffff84161790558015610b42576000805461ff00191690555b5050505050565b6001600160a01b038083166000908152606a6020908152604080832093851683529290529081205460ff168061079757506001600160a01b0382163014905092915050565b33610b97610918565b6001600160a01b031614610bbd5760405162461bcd60e51b81526004016104f190611ba6565b6001600160a01b038116610c225760405162461bcd60e51b815260206004820152602660248201527f4f776e61626c653a206e6577206f776e657220697320746865207a65726f206160448201526564647265737360d01b60648201526084016104f1565b610c2b8161110b565b50565b60006001600160e01b031982166380ac58cd60e01b1480610c5f57506001600160e01b03198216635b5e139f60e01b145b806103f157506301ffc9a760e01b6001600160e01b03198316146103f1565b6000908152606760205260409020546001600160a01b0316151590565b600081815260696020526040902080546001600160a01b0319166001600160a01b0384169081179091558190610cd0826107df565b6001600160a01b03167f8c5be1e5ebec7d5bd14f71427d1e84f3dd0314c0f7b2291e5b200ac8c7c3b92560405160405180910390a45050565b6000610d1482610c7e565b610d755760405162461bcd60e51b815260206004820152602c60248201527f4552433732313a206f70657261746f7220717565727920666f72206e6f6e657860448201526b34b9ba32b73a103a37b5b2b760a11b60648201526084016104f1565b6000610d80836107df565b9050806001600160a01b0316846001600160a01b03161480610dbb5750836001600160a01b0316610db084610489565b6001600160a01b0316145b80610dcb5750610dcb8185610b49565b949350505050565b826001600160a01b0316610de6826107df565b6001600160a01b031614610e4e5760405162461bcd60e51b815260206004820152602960248201527f4552433732313a207472616e73666572206f6620746f6b656e2074686174206960448201526839903737ba1037bbb760b91b60648201526084016104f1565b6001600160a01b038216610eb05760405162461bcd60e51b8152602060048201526024808201527f4552433732313a207472616e7366657220746f20746865207a65726f206164646044820152637265737360e01b60648201526084016104f1565b610ebb600082610c9b565b6001600160a01b0383166000908152606860205260408120805460019290610ee4908490611b8f565b90915550506001600160a01b0382166000908152606860205260408120805460019290610f12908490611b77565b909155505060008181526067602052604080822080546001600160a01b0319166001600160a01b038681169182179092559151849391871691600080516020611dde83398151915291a4505050565b6001600160a01b038216610fb75760405162461bcd60e51b815260206004820181905260248201527f4552433732313a206d696e7420746f20746865207a65726f206164647265737360448201526064016104f1565b610fc081610c7e565b1561100d5760405162461bcd60e51b815260206004820152601c60248201527f4552433732313a20746f6b656e20616c7265616479206d696e7465640000000060448201526064016104f1565b6001600160a01b0382166000908152606860205260408120805460019290611036908490611b77565b909155505060008181526067602052604080822080546001600160a01b0319166001600160a01b0386169081179091559051839290600080516020611dde833981519152908290a45050565b600061108d826107df565b905061109a600083610c9b565b6001600160a01b03811660009081526068602052604081208054600192906110c3908490611b8f565b909155505060008281526067602052604080822080546001600160a01b0319169055518391906001600160a01b03841690600080516020611dde833981519152908390a45050565b609780546001600160a01b038381166001600160a01b0319831681179093556040519116919082907f8be0079c531659141344cd1fd0a4f28419497f9722a3daafe3b4186f6b6457e090600090a35050565b611168848484610dd3565b61117484848484611390565b610a335760405162461bcd60e51b81526004016104f190611cec565b6060816111b45750506040805180820190915260018152600360fc1b602082015290565b8160005b81156111de57806111c881611d3e565b91506111d79050600a83611b3c565b91506111b8565b60008167ffffffffffffffff8111156111f9576111f96117f0565b6040519080825280601f01601f191660200182016040528015611223576020820181803683370190505b5090505b8415610dcb57611238600183611b8f565b9150611245600a86611d59565b611250906030611b77565b60f81b81838151811061126557611265611d6d565b60200101906001600160f81b031916908160001a905350611287600a86611b3c565b9450611227565b600054610100900460ff16806112a7575060005460ff16155b6112c35760405162461bcd60e51b81526004016104f190611c9e565b600054610100900460ff161580156112e5576000805461ffff19166101011790555b6112ed61149d565b6112f561149d565b6112ff8383611507565b8015610622576000805461ff0019169055505050565b600054610100900460ff168061132e575060005460ff16155b61134a5760405162461bcd60e51b81526004016104f190611c9e565b600054610100900460ff1615801561136c576000805461ffff19166101011790555b61137461149d565b61137c61159c565b8015610c2b576000805461ff001916905550565b60006001600160a01b0384163b1561149257604051630a85bd0160e11b81526001600160a01b0385169063150b7a02906113d4903390899088908890600401611d83565b602060405180830381600087803b1580156113ee57600080fd5b505af192505050801561141e575060408051601f3d908101601f1916820190925261141b91810190611dc0565b60015b611478573d80801561144c576040519150601f19603f3d011682016040523d82523d6000602084013e611451565b606091505b5080516114705760405162461bcd60e51b81526004016104f190611cec565b805181602001fd5b6001600160e01b031916630a85bd0160e11b149050610dcb565b506001949350505050565b600054610100900460ff16806114b6575060005460ff16155b6114d25760405162461bcd60e51b81526004016104f190611c9e565b600054610100900460ff1615801561137c576000805461ffff19166101011790558015610c2b576000805461ff001916905550565b600054610100900460ff1680611520575060005460ff16155b61153c5760405162461bcd60e51b81526004016104f190611c9e565b600054610100900460ff1615801561155e576000805461ffff19166101011790555b82516115719060659060208601906115fc565b5081516115859060669060208501906115fc565b508015610622576000805461ff0019169055505050565b600054610100900460ff16806115b5575060005460ff16155b6115d15760405162461bcd60e51b81526004016104f190611c9e565b600054610100900460ff161580156115f3576000805461ffff19166101011790555b61137c3361110b565b82805461160890611a65565b90600052602060002090601f01602090048101928261162a5760008555611670565b82601f1061164357805160ff1916838001178555611670565b82800160010185558215611670579182015b82811115611670578251825591602001919060010190611655565b5061167c929150611680565b5090565b5b8082111561167c5760008155600101611681565b6001600160e01b031981168114610c2b57600080fd5b6000602082840312156116bd57600080fd5b813561079781611695565b60005b838110156116e35781810151838201526020016116cb565b83811115610a335750506000910152565b6000815180845261170c8160208601602086016116c8565b601f01601f19169290920160200192915050565b60208152600061079760208301846116f4565b60006020828403121561174557600080fd5b5035919050565b80356001600160a01b038116811461176357600080fd5b919050565b6000806040838503121561177b57600080fd5b6117848361174c565b946020939093013593505050565b6000806000606084860312156117a757600080fd5b6117b08461174c565b92506117be6020850161174c565b9150604084013590509250925092565b600080604083850312156117e157600080fd5b50508035926020909101359150565b634e487b7160e01b600052604160045260246000fd5b600067ffffffffffffffff80841115611821576118216117f0565b604051601f8501601f19908116603f01168101908282118183101715611849576118496117f0565b8160405280935085815286868601111561186257600080fd5b858560208301376000602087830101525050509392505050565b600082601f83011261188d57600080fd5b61079783833560208501611806565b6000602082840312156118ae57600080fd5b813567ffffffffffffffff8111156118c557600080fd5b610dcb8482850161187c565b6000602082840312156118e357600080fd5b6107978261174c565b600080604083850312156118ff57600080fd5b6119088361174c565b91506020830135801515811461191d57600080fd5b809150509250929050565b6000806000806080858703121561193e57600080fd5b6119478561174c565b93506119556020860161174c565b925060408501359150606085013567ffffffffffffffff81111561197857600080fd5b8501601f8101871361198957600080fd5b61199887823560208401611806565b91505092959194509250565b600080600080608085870312156119ba57600080fd5b6119c38561174c565b9350602085013567ffffffffffffffff808211156119e057600080fd5b6119ec8883890161187c565b94506040870135915080821115611a0257600080fd5b50611a0f8782880161187c565b925050606085013561ffff81168114611a2757600080fd5b939692955090935050565b60008060408385031215611a4557600080fd5b611a4e8361174c565b9150611a5c6020840161174c565b90509250929050565b600181811c90821680611a7957607f821691505b60208210811415611a9a57634e487b7160e01b600052602260045260246000fd5b50919050565b60208082526031908201527f4552433732313a207472616e736665722063616c6c6572206973206e6f74206f6040820152701ddb995c881b9bdc88185c1c1c9bdd9959607a1b606082015260800190565b634e487b7160e01b600052601160045260246000fd5b6000816000190483118215151615611b2157611b21611af1565b500290565b634e487b7160e01b600052601260045260246000fd5b600082611b4b57611b4b611b26565b500490565b6020808252600d908201526c13db9b1e481a5b9d195c9b985b609a1b604082015260600190565b60008219821115611b8a57611b8a611af1565b500190565b600082821015611ba157611ba1611af1565b500390565b6020808252818101527f4f776e61626c653a2063616c6c6572206973206e6f7420746865206f776e6572604082015260600190565b60008151611bed8185602086016116c8565b9290920192915050565b600080845481600182811c915080831680611c1357607f831692505b6020808410821415611c3357634e487b7160e01b86526022600452602486fd5b818015611c475760018114611c5857611c85565b60ff19861689528489019650611c85565b60008b81526020902060005b86811015611c7d5781548b820152908501908301611c64565b505084890196505b505050505050611c958185611bdb565b95945050505050565b6020808252602e908201527f496e697469616c697a61626c653a20636f6e747261637420697320616c72656160408201526d191e481a5b9a5d1a585b1a5e995960921b606082015260800190565b60208082526032908201527f4552433732313a207472616e7366657220746f206e6f6e20455243373231526560408201527131b2b4bb32b91034b6b83632b6b2b73a32b960711b606082015260800190565b6000600019821415611d5257611d52611af1565b5060010190565b600082611d6857611d68611b26565b500690565b634e487b7160e01b600052603260045260246000fd5b6001600160a01b0385811682528416602082015260408101839052608060608201819052600090611db6908301846116f4565b9695505050505050565b600060208284031215611dd257600080fd5b81516107978161169556feddf252ad1be2c89b69c2b068fc378daa952ba7f163c4a11628f55a4df523b3efa2646970667358221220da754b73a62398c39b3828dfe0425a83ab112ab515befa8dc8659c393886bcff64736f6c63430008090033",
  "devdoc": {
    "kind": "dev",
    "methods": {
      "approve(address,uint256)": {
        "details": "See {IERC721-approve}."
      },
      "balanceOf(address)": {
        "details": "See {IERC721-balanceOf}."
      },
      "burn(uint256)": {
        "params": {
          "tokenId": "Token ID to burn User burn function for token id "
        }
      },
      "getApproved(uint256)": {
        "details": "See {IERC721-getApproved}."
      },
      "initialize(address,string,string,uint16)": {
        "details": "Function to create a new edition. Can only be called by the allowed creator Sets the only allowed minter to the address that creates/owns the edition. This can be re-assigned or updated later"
      },
      "mint(address,uint256)": {
        "details": "This mints one edition to the given address by an allowed minter on the edition instance.",
        "params": {
          "to": "address to send the newly minted edition to"
        }
      },
      "name()": {
        "details": "See {IERC721Metadata-name}."
      },
      "ownerOf(uint256)": {
        "details": "See {IERC721-ownerOf}."
      },
      "renounceOwnership()": {
        "details": "Leaves the contract without owner. It will not be possible to call `onlyOwner` functions anymore. Can only be called by the current owner. NOTE: Renouncing ownership will leave the contract without an owner, thereby removing any functionality that is only available to the owner."
      },
      "royaltyInfo(uint256,uint256)": {
        "details": "Get royalty information for token",
        "params": {
          "_salePrice": "Sale price for the token"
        }
      },
      "safeTransferFrom(address,address,uint256)": {
        "details": "See {IERC721-safeTransferFrom}."
      },
      "safeTransferFrom(address,address,uint256,bytes)": {
        "details": "See {IERC721-safeTransferFrom}."
      },
      "setApprovalForAll(address,bool)": {
        "details": "See {IERC721-setApprovalForAll}."
      },
      "symbol()": {
        "details": "See {IERC721Metadata-symbol}."
      },
      "tokenURI(uint256)": {
        "details": "Get URI for given token id",
        "params": {
          "tokenId": "token id to get uri for"
        },
        "returns": {
          "_0": "base64-encoded json metadata object"
        }
      },
      "totalSupply()": {
        "details": "returns the number of minted tokens uses some extra gas but makes etherscan and users happy so :shrug: partial erc721enumerable implemntation"
      },
      "transferFrom(address,address,uint256)": {
        "details": "See {IERC721-transferFrom}."
      },
      "transferOwnership(address)": {
        "details": "Transfers ownership of the contract to a new account (`newOwner`). Can only be called by the current owner."
      }
    },
    "version": 1
  },
  "userdoc": {
    "kind": "user",
    "methods": {
      "owner()": {
        "notice": "Simple override for owner interface."
      }
    },
    "notice": "This smart contract adds features and allows for a ownership only by another smart contract as fallback behavior while also implementing all normal ERC721 functions as expected",
    "version": 1
  },
  "storageLayout": {
    "storage": [
      {
        "astId": 232,
        "contract": "contracts/ERC721Base.sol:ERC721Base",
        "label": "_initialized",
        "offset": 0,
        "slot": "0",
        "type": "t_bool"
      },
      {
        "astId": 235,
        "contract": "contracts/ERC721Base.sol:ERC721Base",
        "label": "_initializing",
        "offset": 1,
        "slot": "0",
        "type": "t_bool"
      },
      {
        "astId": 1567,
        "contract": "contracts/ERC721Base.sol:ERC721Base",
        "label": "__gap",
        "offset": 0,
        "slot": "1",
        "type": "t_array(t_uint256)50_storage"
      },
      {
        "astId": 1890,
        "contract": "contracts/ERC721Base.sol:ERC721Base",
        "label": "__gap",
        "offset": 0,
        "slot": "51",
        "type": "t_array(t_uint256)50_storage"
      },
      {
        "astId": 301,
        "contract": "contracts/ERC721Base.sol:ERC721Base",
        "label": "_name",
        "offset": 0,
        "slot": "101",
        "type": "t_string_storage"
      },
      {
        "astId": 303,
        "contract": "contracts/ERC721Base.sol:ERC721Base",
        "label": "_symbol",
        "offset": 0,
        "slot": "102",
        "type": "t_string_storage"
      },
      {
        "astId": 307,
        "contract": "contracts/ERC721Base.sol:ERC721Base",
        "label": "_owners",
        "offset": 0,
        "slot": "103",
        "type": "t_mapping(t_uint256,t_address)"
      },
      {
        "astId": 311,
        "contract": "contracts/ERC721Base.sol:ERC721Base",
        "label": "_balances",
        "offset": 0,
        "slot": "104",
        "type": "t_mapping(t_address,t_uint256)"
      },
      {
        "astId": 315,
        "contract": "contracts/ERC721Base.sol:ERC721Base",
        "label": "_tokenApprovals",
        "offset": 0,
        "slot": "105",
        "type": "t_mapping(t_uint256,t_address)"
      },
      {
        "astId": 321,
        "contract": "contracts/ERC721Base.sol:ERC721Base",
        "label": "_operatorApprovals",
        "offset": 0,
        "slot": "106",
        "type": "t_mapping(t_address,t_mapping(t_address,t_bool))"
      },
      {
        "astId": 1117,
        "contract": "contracts/ERC721Base.sol:ERC721Base",
        "label": "__gap",
        "offset": 0,
        "slot": "107",
        "type": "t_array(t_uint256)44_storage"
      },
      {
        "astId": 10,
        "contract": "contracts/ERC721Base.sol:ERC721Base",
        "label": "_owner",
        "offset": 0,
        "slot": "151",
        "type": "t_address"
      },
      {
        "astId": 123,
        "contract": "contracts/ERC721Base.sol:ERC721Base",
        "label": "__gap",
        "offset": 0,
        "slot": "152",
        "type": "t_array(t_uint256)49_storage"
      },
      {
        "astId": 2368,
        "contract": "contracts/ERC721Base.sol:ERC721Base",
        "label": "minted",
        "offset": 0,
        "slot": "201",
        "type": "t_uint256"
      },
      {
        "astId": 2370,
        "contract": "contracts/ERC721Base.sol:ERC721Base",
        "label": "royaltyBps",
        "offset": 0,
        "slot": "202",
        "type": "t_uint16"
      },
      {
        "astId": 2372,
        "contract": "contracts/ERC721Base.sol:ERC721Base",
        "label": "baseURI",
        "offset": 0,
        "slot": "203",
        "type": "t_string_storage"
      }
    ],
    "types": {
      "t_address": {
        "encoding": "inplace",
        "label": "address",
        "numberOfBytes": "20"
      },
      "t_array(t_uint256)44_storage": {
        "base": "t_uint256",
        "encoding": "inplace",
        "label": "uint256[44]",
        "numberOfBytes": "1408"
      },
      "t_array(t_uint256)49_storage": {
        "base": "t_uint256",
        "encoding": "inplace",
        "label": "uint256[49]",
        "numberOfBytes": "1568"
      },
      "t_array(t_uint256)50_storage": {
        "base": "t_uint256",
        "encoding": "inplace",
        "label": "uint256[50]",
        "numberOfBytes": "1600"
      },
      "t_bool": {
        "encoding": "inplace",
        "label": "bool",
        "numberOfBytes": "1"
      },
      "t_mapping(t_address,t_bool)": {
        "encoding": "mapping",
        "key": "t_address",
        "label": "mapping(address => bool)",
        "numberOfBytes": "32",
        "value": "t_bool"
      },
      "t_mapping(t_address,t_mapping(t_address,t_bool))": {
        "encoding": "mapping",
        "key": "t_address",
        "label": "mapping(address => mapping(address => bool))",
        "numberOfBytes": "32",
        "value": "t_mapping(t_address,t_bool)"
      },
      "t_mapping(t_address,t_uint256)": {
        "encoding": "mapping",
        "key": "t_address",
        "label": "mapping(address => uint256)",
        "numberOfBytes": "32",
        "value": "t_uint256"
      },
      "t_mapping(t_uint256,t_address)": {
        "encoding": "mapping",
        "key": "t_uint256",
        "label": "mapping(uint256 => address)",
        "numberOfBytes": "32",
        "value": "t_address"
      },
      "t_string_storage": {
        "encoding": "bytes",
        "label": "string",
        "numberOfBytes": "32"
      },
      "t_uint16": {
        "encoding": "inplace",
        "label": "uint16",
        "numberOfBytes": "2"
      },
      "t_uint256": {
        "encoding": "inplace",
        "label": "uint256",
        "numberOfBytes": "32"
      }
    }
  }
}