{
  "address": "0x86c67a16C16BF784BdFE7D4b7575dB664D191F88",
  "abi": [
    {
      "inputs": [],
      "stateMutability": "nonpayable",
      "type": "constructor"
    },
    {
      "anonymous": false,
      "inputs": [
        {
          "indexed": true,
          "internalType": "address",
          "name": "owner",
          "type": "address"
        },
        {
          "indexed": true,
          "internalType": "address",
          "name": "approved",
          "type": "address"
        },
        {
          "indexed": true,
          "internalType": "uint256",
          "name": "tokenId",
          "type": "uint256"
        }
      ],
      "name": "Approval",
      "type": "event"
    },
    {
      "anonymous": false,
      "inputs": [
        {
          "indexed": true,
          "internalType": "address",
          "name": "owner",
          "type": "address"
        },
        {
          "indexed": true,
          "internalType": "address",
          "name": "operator",
          "type": "address"
        },
        {
          "indexed": false,
          "internalType": "bool",
          "name": "approved",
          "type": "bool"
        }
      ],
      "name": "ApprovalForAll",
      "type": "event"
    },
    {
      "anonymous": false,
      "inputs": [
        {
          "indexed": true,
          "internalType": "address",
          "name": "previousOwner",
          "type": "address"
        },
        {
          "indexed": true,
          "internalType": "address",
          "name": "newOwner",
          "type": "address"
        }
      ],
      "name": "OwnershipTransferred",
      "type": "event"
    },
    {
      "anonymous": false,
      "inputs": [
        {
          "indexed": true,
          "internalType": "address",
          "name": "from",
          "type": "address"
        },
        {
          "indexed": true,
          "internalType": "address",
          "name": "to",
          "type": "address"
        },
        {
          "indexed": true,
          "internalType": "uint256",
          "name": "tokenId",
          "type": "uint256"
        }
      ],
      "name": "Transfer",
      "type": "event"
    },
    {
      "inputs": [
        {
          "internalType": "uint256",
          "name": "tokenId",
          "type": "uint256"
        }
      ],
      "name": "__burn",
      "outputs": [],
      "stateMutability": "nonpayable",
      "type": "function"
    },
    {
      "inputs": [
        {
          "internalType": "uint256",
          "name": "tokenId",
          "type": "uint256"
        }
      ],
      "name": "__exists",
      "outputs": [
        {
          "internalType": "bool",
          "name": "",
          "type": "bool"
        }
      ],
      "stateMutability": "view",
      "type": "function"
    },
    {
      "inputs": [
        {
          "internalType": "address",
          "name": "_owner",
          "type": "address"
        },
        {
          "internalType": "address",
          "name": "operator",
          "type": "address"
        }
      ],
      "name": "__isApprovedForAll",
      "outputs": [
        {
          "internalType": "bool",
          "name": "",
          "type": "bool"
        }
      ],
      "stateMutability": "view",
      "type": "function"
    },
    {
      "inputs": [
        {
          "internalType": "address",
          "name": "spender",
          "type": "address"
        },
        {
          "internalType": "uint256",
          "name": "tokenId",
          "type": "uint256"
        }
      ],
      "name": "__isApprovedOrOwner",
      "outputs": [
        {
          "internalType": "bool",
          "name": "",
          "type": "bool"
        }
      ],
      "stateMutability": "view",
      "type": "function"
    },
    {
      "inputs": [
        {
          "internalType": "address",
          "name": "to",
          "type": "address"
        },
        {
          "internalType": "uint256",
          "name": "tokenId",
          "type": "uint256"
        }
      ],
      "name": "__mint",
      "outputs": [],
      "stateMutability": "nonpayable",
      "type": "function"
    },
    {
      "inputs": [],
      "name": "__owner",
      "outputs": [
        {
          "internalType": "address",
          "name": "",
          "type": "address"
        }
      ],
      "stateMutability": "view",
      "type": "function"
    },
    {
      "inputs": [
        {
          "internalType": "string",
          "name": "uriBase",
          "type": "string"
        },
        {
          "internalType": "string",
          "name": "uriExtension",
          "type": "string"
        }
      ],
      "name": "__setBaseURI",
      "outputs": [],
      "stateMutability": "nonpayable",
      "type": "function"
    },
    {
      "inputs": [
        {
          "internalType": "uint256",
          "name": "tokenId",
          "type": "uint256"
        }
      ],
      "name": "__tokenURI",
      "outputs": [
        {
          "internalType": "string",
          "name": "",
          "type": "string"
        }
      ],
      "stateMutability": "view",
      "type": "function"
    },
    {
      "inputs": [],
      "name": "advancedConfig",
      "outputs": [
        {
          "internalType": "uint16",
          "name": "royaltyBps",
          "type": "uint16"
        },
        {
          "internalType": "string",
          "name": "uriBase",
          "type": "string"
        },
        {
          "internalType": "string",
          "name": "uriExtension",
          "type": "string"
        },
        {
          "internalType": "bool",
          "name": "hasTransferHook",
          "type": "bool"
        }
      ],
      "stateMutability": "view",
      "type": "function"
    },
    {
      "inputs": [
        {
          "internalType": "address",
          "name": "to",
          "type": "address"
        },
        {
          "internalType": "uint256",
          "name": "tokenId",
          "type": "uint256"
        }
      ],
      "name": "approve",
      "outputs": [],
      "stateMutability": "nonpayable",
      "type": "function"
    },
    {
      "inputs": [
        {
          "internalType": "address",
          "name": "owner",
          "type": "address"
        }
      ],
      "name": "balanceOf",
      "outputs": [
        {
          "internalType": "uint256",
          "name": "",
          "type": "uint256"
        }
      ],
      "stateMutability": "view",
      "type": "function"
    },
    {
      "inputs": [
        {
          "internalType": "uint256",
          "name": "tokenId",
          "type": "uint256"
        }
      ],
      "name": "burn",
      "outputs": [],
      "stateMutability": "nonpayable",
      "type": "function"
    },
    {
      "inputs": [],
      "name": "deployedBlock",
      "outputs": [
        {
          "internalType": "uint256",
          "name": "",
          "type": "uint256"
        }
      ],
      "stateMutability": "view",
      "type": "function"
    },
    {
      "inputs": [
        {
          "internalType": "uint256",
          "name": "tokenId",
          "type": "uint256"
        }
      ],
      "name": "getApproved",
      "outputs": [
        {
          "internalType": "address",
          "name": "",
          "type": "address"
        }
      ],
      "stateMutability": "view",
      "type": "function"
    },
    {
      "inputs": [
        {
          "internalType": "address",
          "name": "newOwner",
          "type": "address"
        },
        {
          "internalType": "string",
          "name": "_name",
          "type": "string"
        },
        {
          "internalType": "string",
          "name": "_symbol",
          "type": "string"
        },
        {
          "components": [
            {
              "internalType": "uint16",
              "name": "royaltyBps",
              "type": "uint16"
            },
            {
              "internalType": "string",
              "name": "uriBase",
              "type": "string"
            },
            {
              "internalType": "string",
              "name": "uriExtension",
              "type": "string"
            },
            {
              "internalType": "bool",
              "name": "hasTransferHook",
              "type": "bool"
            }
          ],
          "internalType": "struct ConfigSettings",
          "name": "settings",
          "type": "tuple"
        }
      ],
      "name": "initialize",
      "outputs": [],
      "stateMutability": "nonpayable",
      "type": "function"
    },
    {
      "inputs": [
        {
          "internalType": "address",
          "name": "_owner",
          "type": "address"
        },
        {
          "internalType": "address",
          "name": "operator",
          "type": "address"
        }
      ],
      "name": "isApprovedForAll",
      "outputs": [
        {
          "internalType": "bool",
          "name": "",
          "type": "bool"
        }
      ],
      "stateMutability": "view",
      "type": "function"
    },
    {
      "inputs": [],
      "name": "name",
      "outputs": [
        {
          "internalType": "string",
          "name": "",
          "type": "string"
        }
      ],
      "stateMutability": "view",
      "type": "function"
    },
    {
      "inputs": [],
      "name": "owner",
      "outputs": [
        {
          "internalType": "address",
          "name": "",
          "type": "address"
        }
      ],
      "stateMutability": "view",
      "type": "function"
    },
    {
      "inputs": [
        {
          "internalType": "uint256",
          "name": "tokenId",
          "type": "uint256"
        }
      ],
      "name": "ownerOf",
      "outputs": [
        {
          "internalType": "address",
          "name": "",
          "type": "address"
        }
      ],
      "stateMutability": "view",
      "type": "function"
    },
    {
      "inputs": [],
      "name": "renounceOwnership",
      "outputs": [],
      "stateMutability": "nonpayable",
      "type": "function"
    },
    {
      "inputs": [
        {
          "internalType": "uint256",
          "name": "",
          "type": "uint256"
        },
        {
          "internalType": "uint256",
          "name": "_salePrice",
          "type": "uint256"
        }
      ],
      "name": "royaltyInfo",
      "outputs": [
        {
          "internalType": "address",
          "name": "receiver",
          "type": "address"
        },
        {
          "internalType": "uint256",
          "name": "royaltyAmount",
          "type": "uint256"
        }
      ],
      "stateMutability": "view",
      "type": "function"
    },
    {
      "inputs": [
        {
          "internalType": "address",
          "name": "from",
          "type": "address"
        },
        {
          "internalType": "address",
          "name": "to",
          "type": "address"
        },
        {
          "internalType": "uint256",
          "name": "tokenId",
          "type": "uint256"
        }
      ],
      "name": "safeTransferFrom",
      "outputs": [],
      "stateMutability": "nonpayable",
      "type": "function"
    },
    {
      "inputs": [
        {
          "internalType": "address",
          "name": "from",
          "type": "address"
        },
        {
          "internalType": "address",
          "name": "to",
          "type": "address"
        },
        {
          "internalType": "uint256",
          "name": "tokenId",
          "type": "uint256"
        },
        {
          "internalType": "bytes",
          "name": "_data",
          "type": "bytes"
        }
      ],
      "name": "safeTransferFrom",
      "outputs": [],
      "stateMutability": "nonpayable",
      "type": "function"
    },
    {
      "inputs": [
        {
          "internalType": "address",
          "name": "operator",
          "type": "address"
        },
        {
          "internalType": "bool",
          "name": "approved",
          "type": "bool"
        }
      ],
      "name": "setApprovalForAll",
      "outputs": [],
      "stateMutability": "nonpayable",
      "type": "function"
    },
    {
      "inputs": [
        {
          "internalType": "bytes4",
          "name": "interfaceId",
          "type": "bytes4"
        }
      ],
      "name": "supportsInterface",
      "outputs": [
        {
          "internalType": "bool",
          "name": "",
          "type": "bool"
        }
      ],
      "stateMutability": "view",
      "type": "function"
    },
    {
      "inputs": [],
      "name": "symbol",
      "outputs": [
        {
          "internalType": "string",
          "name": "",
          "type": "string"
        }
      ],
      "stateMutability": "view",
      "type": "function"
    },
    {
      "inputs": [
        {
          "internalType": "uint256",
          "name": "tokenId",
          "type": "uint256"
        }
      ],
      "name": "tokenURI",
      "outputs": [
        {
          "internalType": "string",
          "name": "",
          "type": "string"
        }
      ],
      "stateMutability": "view",
      "type": "function"
    },
    {
      "inputs": [],
      "name": "totalSupply",
      "outputs": [
        {
          "internalType": "uint256",
          "name": "",
          "type": "uint256"
        }
      ],
      "stateMutability": "view",
      "type": "function"
    },
    {
      "inputs": [
        {
          "internalType": "address",
          "name": "from",
          "type": "address"
        },
        {
          "internalType": "address",
          "name": "to",
          "type": "address"
        },
        {
          "internalType": "uint256",
          "name": "tokenId",
          "type": "uint256"
        }
      ],
      "name": "transferFrom",
      "outputs": [],
      "stateMutability": "nonpayable",
      "type": "function"
    },
    {
      "inputs": [
        {
          "internalType": "address",
          "name": "newOwner",
          "type": "address"
        }
      ],
      "name": "transferOwnership",
      "outputs": [],
      "stateMutability": "nonpayable",
      "type": "function"
    }
  ],
  "transactionHash": "0x69a137a5c543d59736d5555a58173b8c86551747b327aed332111adb9310a1f5",
  "args": [],
  "solcInputHash": "96380f032a8f4abaf0d0c34b19efdc36",
  "bytecode": "0x60a060405234801561001057600080fd5b5043608052608051612455610030600039600061036401526124556000f3fe608060405234801561001057600080fd5b50600436106101da5760003560e01c806370a0823111610104578063a22cb465116100a2578063d1a0152011610071578063d1a015201461040d578063e985e9c514610420578063f2fde38b14610433578063f5dbba9d1461044657600080fd5b8063a22cb465146103c1578063b1a78e3f146103d4578063b88d4fde146103e7578063c87b56dd146103fa57600080fd5b80638553c3e9116100de5780638553c3e9146103865780638da5cb5b1461039957806395d89b41146103a1578063a1f1fdb9146103a957600080fd5b806370a0823114610344578063715018a61461035757806382ea7bfe1461035f57600080fd5b806318160ddd1161017c57806342842e0e1161014b57806342842e0e146102f857806342966c681461030b57806352d9e77a1461031e5780636352211e1461033157600080fd5b806318160ddd1461028a57806323b872dd146102a05780632a55205a146102b35780633dc8ded7146102e557600080fd5b8063081812fc116101b8578063081812fc14610231578063087ff6181461025c578063095ea7b31461026f57806313effa0f1461028257600080fd5b806301278b02146101df57806301ffc9a7146101f457806306fdde031461021c575b600080fd5b6101f26101ed366004611cc7565b610459565b005b610207610202366004611d41565b6104c9565b60405190151581526020015b60405180910390f35b61022461050f565b6040516102139190611db6565b61024461023f366004611dc9565b6105a1565b6040516001600160a01b039091168152602001610213565b61020761026a366004611df9565b610636565b6101f261027d366004611e2c565b610649565b61024461075a565b610292610769565b604051908152602001610213565b6101f26102ae366004611e56565b610774565b6102c66102c1366004611e92565b6107a6565b604080516001600160a01b039093168352602083019190915201610213565b6101f26102f3366004611e2c565b610807565b6101f2610306366004611e56565b610862565b6101f2610319366004611dc9565b61087d565b61020761032c366004611e2c565b6108d6565b61024461033f366004611dc9565b610921565b610292610352366004611eb4565b610998565b6101f2610a1f565b6102927f000000000000000000000000000000000000000000000000000000000000000081565b610207610394366004611dc9565b610a8a565b610244610aa9565b610224610abd565b6103b1610acc565b6040516102139493929190611ecf565b6101f26103cf366004611f22565b610bff565b6101f26103e2366004611f4c565b610cc4565b6101f26103f5366004612062565b610db8565b610224610408366004611dc9565b610df0565b6101f261041b366004611dc9565b610e77565b61020761042e366004611df9565b610eb6565b6101f2610441366004611eb4565b610efb565b610224610454366004611dc9565b610fc8565b33301461049d5760405162461bcd60e51b815260206004820152600d60248201526c13db9b1e481a5b9d195c9b985b609a1b60448201526064015b60405180910390fd5b81516104b09060cb906020850190611b59565b5080516104c49060cc906020840190611b59565b505050565b600063152a902d60e11b6001600160e01b0319831614806104fa5750633523b4bb60e21b6001600160e01b03198316145b80610509575061050982611017565b92915050565b60606065805461051e906120de565b80601f016020809104026020016040519081016040528092919081815260200182805461054a906120de565b80156105975780601f1061056c57610100808354040283529160200191610597565b820191906000526020600020905b81548152906001019060200180831161057a57829003601f168201915b5050505050905090565b6000818152606760205260408120546001600160a01b031661061a5760405162461bcd60e51b815260206004820152602c60248201527f4552433732313a20617070726f76656420717565727920666f72206e6f6e657860448201526b34b9ba32b73a103a37b5b2b760a11b6064820152608401610494565b506000908152606960205260409020546001600160a01b031690565b60006106428383610eb6565b9392505050565b600061065482610921565b9050806001600160a01b0316836001600160a01b031614156106c25760405162461bcd60e51b815260206004820152602160248201527f4552433732313a20617070726f76616c20746f2063757272656e74206f776e656044820152603960f91b6064820152608401610494565b336001600160a01b03821614806106de57506106de8133610eb6565b6107505760405162461bcd60e51b815260206004820152603860248201527f4552433732313a20617070726f76652063616c6c6572206973206e6f74206f7760448201527f6e6572206e6f7220617070726f76656420666f7220616c6c00000000000000006064820152608401610494565b6104c48383611067565b6000610764610aa9565b905090565b600061076460c95490565b61077f335b826110d5565b61079b5760405162461bcd60e51b815260040161049490612119565b6104c48383836111ac565b600080806107b2610aa9565b6001600160a01b031614156107d4576107c9610aa9565b600091509150610800565b6107dc610aa9565b60ca54612710906107f19061ffff1686612180565b6107fb91906121b5565b915091505b9250929050565b3330146108465760405162461bcd60e51b815260206004820152600d60248201526c13db9b1e481a5b9d195c9b985b609a1b6044820152606401610494565b6108508282611357565b61085e60c980546001019055565b5050565b6104c483838360405180602001604052806000815250610db8565b61088633610779565b6108c05760405162461bcd60e51b815260206004820152600b60248201526a139bdd08185b1b1bddd95960aa1b6044820152606401610494565b6108c9816114a5565b6108d360c961154c565b50565b60003330146109175760405162461bcd60e51b815260206004820152600d60248201526c13db9b1e481a5b9d195c9b985b609a1b6044820152606401610494565b61064283836110d5565b6000818152606760205260408120546001600160a01b0316806105095760405162461bcd60e51b815260206004820152602960248201527f4552433732313a206f776e657220717565727920666f72206e6f6e657869737460448201526832b73a103a37b5b2b760b91b6064820152608401610494565b60006001600160a01b038216610a035760405162461bcd60e51b815260206004820152602a60248201527f4552433732313a2062616c616e636520717565727920666f7220746865207a65604482015269726f206164647265737360b01b6064820152608401610494565b506001600160a01b031660009081526068602052604090205490565b33610a28610aa9565b6001600160a01b031614610a7e5760405162461bcd60e51b815260206004820181905260248201527f4f776e61626c653a2063616c6c6572206973206e6f7420746865206f776e65726044820152606401610494565b610a8860006115a3565b565b6000818152606760205260408120546001600160a01b03161515610509565b60006107646097546001600160a01b031690565b60606066805461051e906120de565b60ca805460cb805461ffff9092169291610ae5906120de565b80601f0160208091040260200160405190810160405280929190818152602001828054610b11906120de565b8015610b5e5780601f10610b3357610100808354040283529160200191610b5e565b820191906000526020600020905b815481529060010190602001808311610b4157829003601f168201915b505050505090806002018054610b73906120de565b80601f0160208091040260200160405190810160405280929190818152602001828054610b9f906120de565b8015610bec5780601f10610bc157610100808354040283529160200191610bec565b820191906000526020600020905b815481529060010190602001808311610bcf57829003601f168201915b5050506003909301549192505060ff1684565b6001600160a01b038216331415610c585760405162461bcd60e51b815260206004820152601960248201527f4552433732313a20617070726f766520746f2063616c6c6572000000000000006044820152606401610494565b336000818152606a602090815260408083206001600160a01b03871680855290835292819020805460ff191686151590811790915590519081529192917f17307eab39ab6107e8899845ad3d59bd9653f200f220920489ca2b5937696c31910160405180910390a35050565b600054610100900460ff1680610cdd575060005460ff16155b610cf95760405162461bcd60e51b8152600401610494906121c9565b600054610100900460ff16158015610d1b576000805461ffff19166101011790555b610d2584846115f5565b610d2d61167c565b815160ca805461ffff191661ffff9092169190911781556020808401518051859392610d5e9260cb92910190611b59565b5060408201518051610d7a916002840191602090910190611b59565b50606091909101516003909101805460ff1916911515919091179055610d9f85610efb565b8015610db1576000805461ff00191690555b5050505050565b610dc233836110d5565b610dde5760405162461bcd60e51b815260040161049490612119565b610dea848484846116f7565b50505050565b6000818152606760205260409020546060906001600160a01b0316610e425760405162461bcd60e51b81526020600482015260086024820152672737903a37b5b2b760c11b6044820152606401610494565b60cb610e4d8361172a565b604051610e6192919060cc906020016122b1565b6040516020818303038152906040529050919050565b3330146108c05760405162461bcd60e51b815260206004820152600d60248201526c13db9b1e481a5b9d195c9b985b609a1b6044820152606401610494565b6001600160a01b038083166000908152606a6020908152604080832093851683529290529081205460ff168061064257506001600160a01b0382163014905092915050565b33610f04610aa9565b6001600160a01b031614610f5a5760405162461bcd60e51b815260206004820181905260248201527f4f776e61626c653a2063616c6c6572206973206e6f7420746865206f776e65726044820152606401610494565b6001600160a01b038116610fbf5760405162461bcd60e51b815260206004820152602660248201527f4f776e61626c653a206e6577206f776e657220697320746865207a65726f206160448201526564647265737360d01b6064820152608401610494565b6108d3816115a3565b60603330146110095760405162461bcd60e51b815260206004820152600d60248201526c13db9b1e481a5b9d195c9b985b609a1b6044820152606401610494565b61050982610df0565b919050565b60006001600160e01b031982166380ac58cd60e01b148061104857506001600160e01b03198216635b5e139f60e01b145b8061050957506301ffc9a760e01b6001600160e01b0319831614610509565b600081815260696020526040902080546001600160a01b0319166001600160a01b038416908117909155819061109c82610921565b6001600160a01b03167f8c5be1e5ebec7d5bd14f71427d1e84f3dd0314c0f7b2291e5b200ac8c7c3b92560405160405180910390a45050565b6000818152606760205260408120546001600160a01b031661114e5760405162461bcd60e51b815260206004820152602c60248201527f4552433732313a206f70657261746f7220717565727920666f72206e6f6e657860448201526b34b9ba32b73a103a37b5b2b760a11b6064820152608401610494565b600061115983610921565b9050806001600160a01b0316846001600160a01b031614806111945750836001600160a01b0316611189846105a1565b6001600160a01b0316145b806111a457506111a48185610eb6565b949350505050565b826001600160a01b03166111bf82610921565b6001600160a01b0316146112275760405162461bcd60e51b815260206004820152602960248201527f4552433732313a207472616e73666572206f6620746f6b656e2074686174206960448201526839903737ba1037bbb760b91b6064820152608401610494565b6001600160a01b0382166112895760405162461bcd60e51b8152602060048201526024808201527f4552433732313a207472616e7366657220746f20746865207a65726f206164646044820152637265737360e01b6064820152608401610494565b611294838383611828565b61129f600082611067565b6001600160a01b03831660009081526068602052604081208054600192906112c89084906122e4565b90915550506001600160a01b03821660009081526068602052604081208054600192906112f69084906122fb565b909155505060008181526067602052604080822080546001600160a01b0319166001600160a01b0386811691821790925591518493918716917fddf252ad1be2c89b69c2b068fc378daa952ba7f163c4a11628f55a4df523b3ef91a4505050565b6001600160a01b0382166113ad5760405162461bcd60e51b815260206004820181905260248201527f4552433732313a206d696e7420746f20746865207a65726f20616464726573736044820152606401610494565b6000818152606760205260409020546001600160a01b0316156114125760405162461bcd60e51b815260206004820152601c60248201527f4552433732313a20746f6b656e20616c7265616479206d696e746564000000006044820152606401610494565b61141e60008383611828565b6001600160a01b03821660009081526068602052604081208054600192906114479084906122fb565b909155505060008181526067602052604080822080546001600160a01b0319166001600160a01b03861690811790915590518392907fddf252ad1be2c89b69c2b068fc378daa952ba7f163c4a11628f55a4df523b3ef908290a45050565b60006114b082610921565b90506114be81600084611828565b6114c9600083611067565b6001600160a01b03811660009081526068602052604081208054600192906114f29084906122e4565b909155505060008281526067602052604080822080546001600160a01b0319169055518391906001600160a01b038416907fddf252ad1be2c89b69c2b068fc378daa952ba7f163c4a11628f55a4df523b3ef908390a45050565b80548061159b5760405162461bcd60e51b815260206004820152601b60248201527f436f756e7465723a2064656372656d656e74206f766572666c6f7700000000006044820152606401610494565b600019019055565b609780546001600160a01b038381166001600160a01b0319831681179093556040519116919082907f8be0079c531659141344cd1fd0a4f28419497f9722a3daafe3b4186f6b6457e090600090a35050565b600054610100900460ff168061160e575060005460ff16155b61162a5760405162461bcd60e51b8152600401610494906121c9565b600054610100900460ff1615801561164c576000805461ffff19166101011790555b6116546118ed565b61165c6118ed565b6116668383611957565b80156104c4576000805461ff0019169055505050565b600054610100900460ff1680611695575060005460ff16155b6116b15760405162461bcd60e51b8152600401610494906121c9565b600054610100900460ff161580156116d3576000805461ffff19166101011790555b6116db6118ed565b6116e36119ec565b80156108d3576000805461ff001916905550565b6117028484846111ac565b61170e84848484611a4c565b610dea5760405162461bcd60e51b815260040161049490612313565b60608161174e5750506040805180820190915260018152600360fc1b602082015290565b8160005b8115611778578061176281612365565b91506117719050600a836121b5565b9150611752565b60008167ffffffffffffffff81111561179357611793611bf2565b6040519080825280601f01601f1916602001820160405280156117bd576020820181803683370190505b5090505b84156111a4576117d26001836122e4565b91506117df600a86612380565b6117ea9060306122fb565b60f81b8183815181106117ff576117ff612394565b60200101906001600160f81b031916908160001a905350611821600a866121b5565b94506117c1565b60cd5460ff16156104c4576040516001600160a01b0384811660248301528316604482015260648101829052600090309060840160408051601f198184030181529181526020820180516001600160e01b031663cad3be8360e01b1790525161189191906123aa565b600060405180830381855af49150503d80600081146118cc576040519150601f19603f3d011682016040523d82523d6000602084013e6118d1565b606091505b5050905080600081146118e357610db1565b3d6000803e3d6000fd5b600054610100900460ff1680611906575060005460ff16155b6119225760405162461bcd60e51b8152600401610494906121c9565b600054610100900460ff161580156116e3576000805461ffff191661010117905580156108d3576000805461ff001916905550565b600054610100900460ff1680611970575060005460ff16155b61198c5760405162461bcd60e51b8152600401610494906121c9565b600054610100900460ff161580156119ae576000805461ffff19166101011790555b82516119c1906065906020860190611b59565b5081516119d5906066906020850190611b59565b5080156104c4576000805461ff0019169055505050565b600054610100900460ff1680611a05575060005460ff16155b611a215760405162461bcd60e51b8152600401610494906121c9565b600054610100900460ff16158015611a43576000805461ffff19166101011790555b6116e3336115a3565b60006001600160a01b0384163b15611b4e57604051630a85bd0160e11b81526001600160a01b0385169063150b7a0290611a909033908990889088906004016123c6565b602060405180830381600087803b158015611aaa57600080fd5b505af1925050508015611ada575060408051601f3d908101601f19168201909252611ad791810190612402565b60015b611b34573d808015611b08576040519150601f19603f3d011682016040523d82523d6000602084013e611b0d565b606091505b508051611b2c5760405162461bcd60e51b815260040161049490612313565b805181602001fd5b6001600160e01b031916630a85bd0160e11b1490506111a4565b506001949350505050565b828054611b65906120de565b90600052602060002090601f016020900481019282611b875760008555611bcd565b82601f10611ba057805160ff1916838001178555611bcd565b82800160010185558215611bcd579182015b82811115611bcd578251825591602001919060010190611bb2565b50611bd9929150611bdd565b5090565b5b80821115611bd95760008155600101611bde565b634e487b7160e01b600052604160045260246000fd5b6040516080810167ffffffffffffffff81118282101715611c2b57611c2b611bf2565b60405290565b600067ffffffffffffffff80841115611c4c57611c4c611bf2565b604051601f8501601f19908116603f01168101908282118183101715611c7457611c74611bf2565b81604052809350858152868686011115611c8d57600080fd5b858560208301376000602087830101525050509392505050565b600082601f830112611cb857600080fd5b61064283833560208501611c31565b60008060408385031215611cda57600080fd5b823567ffffffffffffffff80821115611cf257600080fd5b611cfe86838701611ca7565b93506020850135915080821115611d1457600080fd5b50611d2185828601611ca7565b9150509250929050565b6001600160e01b0319811681146108d357600080fd5b600060208284031215611d5357600080fd5b813561064281611d2b565b60005b83811015611d79578181015183820152602001611d61565b83811115610dea5750506000910152565b60008151808452611da2816020860160208601611d5e565b601f01601f19169290920160200192915050565b6020815260006106426020830184611d8a565b600060208284031215611ddb57600080fd5b5035919050565b80356001600160a01b038116811461101257600080fd5b60008060408385031215611e0c57600080fd5b611e1583611de2565b9150611e2360208401611de2565b90509250929050565b60008060408385031215611e3f57600080fd5b611e4883611de2565b946020939093013593505050565b600080600060608486031215611e6b57600080fd5b611e7484611de2565b9250611e8260208501611de2565b9150604084013590509250925092565b60008060408385031215611ea557600080fd5b50508035926020909101359150565b600060208284031215611ec657600080fd5b61064282611de2565b61ffff85168152608060208201526000611eec6080830186611d8a565b8281036040840152611efe8186611d8a565b915050821515606083015295945050505050565b8035801515811461101257600080fd5b60008060408385031215611f3557600080fd5b611f3e83611de2565b9150611e2360208401611f12565b60008060008060808587031215611f6257600080fd5b611f6b85611de2565b9350602085013567ffffffffffffffff80821115611f8857600080fd5b611f9488838901611ca7565b94506040870135915080821115611faa57600080fd5b611fb688838901611ca7565b93506060870135915080821115611fcc57600080fd5b9086019060808289031215611fe057600080fd5b611fe8611c08565b823561ffff81168114611ffa57600080fd5b815260208301358281111561200e57600080fd5b61201a8a828601611ca7565b60208301525060408301358281111561203257600080fd5b61203e8a828601611ca7565b60408301525061205060608401611f12565b60608201529598949750929550505050565b6000806000806080858703121561207857600080fd5b61208185611de2565b935061208f60208601611de2565b925060408501359150606085013567ffffffffffffffff8111156120b257600080fd5b8501601f810187136120c357600080fd5b6120d287823560208401611c31565b91505092959194509250565b600181811c908216806120f257607f821691505b6020821081141561211357634e487b7160e01b600052602260045260246000fd5b50919050565b60208082526031908201527f4552433732313a207472616e736665722063616c6c6572206973206e6f74206f6040820152701ddb995c881b9bdc88185c1c1c9bdd9959607a1b606082015260800190565b634e487b7160e01b600052601160045260246000fd5b600081600019048311821515161561219a5761219a61216a565b500290565b634e487b7160e01b600052601260045260246000fd5b6000826121c4576121c461219f565b500490565b6020808252602e908201527f496e697469616c697a61626c653a20636f6e747261637420697320616c72656160408201526d191e481a5b9a5d1a585b1a5e995960921b606082015260800190565b8054600090600181811c908083168061223157607f831692505b602080841082141561225357634e487b7160e01b600052602260045260246000fd5b8180156122675760018114612278576122a5565b60ff198616895284890196506122a5565b60008881526020902060005b8681101561229d5781548b820152908501908301612284565b505084890196505b50505050505092915050565b60006122bd8286612217565b84516122cd818360208901611d5e565b6122d981830186612217565b979650505050505050565b6000828210156122f6576122f661216a565b500390565b6000821982111561230e5761230e61216a565b500190565b60208082526032908201527f4552433732313a207472616e7366657220746f206e6f6e20455243373231526560408201527131b2b4bb32b91034b6b83632b6b2b73a32b960711b606082015260800190565b60006000198214156123795761237961216a565b5060010190565b60008261238f5761238f61219f565b500690565b634e487b7160e01b600052603260045260246000fd5b600082516123bc818460208701611d5e565b9190910192915050565b60006001600160a01b038087168352808616602084015250836040830152608060608301526123f86080830184611d8a565b9695505050505050565b60006020828403121561241457600080fd5b815161064281611d2b56fea264697066735822122039cad36d901e94a8e0ffad83f669dbcc206abf2098e74461a73ddc942ca5ba1964736f6c63430008090033",
  "devdoc": {
    "kind": "dev",
    "methods": {
      "__mint(address,uint256)": {
        "details": "This mints one edition to the given address by an allowed minter on the edition instance.",
        "params": {
          "to": "address to send the newly minted NFT to"
        }
      },
      "approve(address,uint256)": {
        "details": "See {IERC721-approve}."
      },
      "balanceOf(address)": {
        "details": "See {IERC721-balanceOf}."
      },
      "burn(uint256)": {
        "params": {
          "tokenId": "Token ID to burn User burn function for token id "
        }
      },
      "getApproved(uint256)": {
        "details": "See {IERC721-getApproved}."
      },
      "initialize(address,string,string,(uint16,string,string,bool))": {
        "params": {
          "_name": "name of NFT contract",
          "_symbol": "symbol of NFT contract",
          "newOwner": "Owner for the new derived nft",
          "settings": "configuration settings for uri, royalty, and hooks features"
        }
      },
      "name()": {
        "details": "See {IERC721Metadata-name}."
      },
      "ownerOf(uint256)": {
        "details": "See {IERC721-ownerOf}."
      },
      "renounceOwnership()": {
        "details": "Leaves the contract without owner. It will not be possible to call `onlyOwner` functions anymore. Can only be called by the current owner. NOTE: Renouncing ownership will leave the contract without an owner, thereby removing any functionality that is only available to the owner."
      },
      "royaltyInfo(uint256,uint256)": {
        "params": {
          "_salePrice": "sales price for token to determine royalty split"
        }
      },
      "safeTransferFrom(address,address,uint256)": {
        "details": "See {IERC721-safeTransferFrom}."
      },
      "safeTransferFrom(address,address,uint256,bytes)": {
        "details": "See {IERC721-safeTransferFrom}."
      },
      "setApprovalForAll(address,bool)": {
        "details": "See {IERC721-setApprovalForAll}."
      },
      "supportsInterface(bytes4)": {
        "params": {
          "interfaceId": "interfaceId bytes4 to check support for"
        }
      },
      "symbol()": {
        "details": "See {IERC721Metadata-symbol}."
      },
      "tokenURI(uint256)": {
        "params": {
          "tokenId": "token id ot get uri for"
        },
        "returns": {
          "_0": "default uri getter functionality"
        }
      },
      "totalSupply()": {
        "details": "returns the number of minted tokens uses some extra gas but makes etherscan and users happy so :shrug: partial erc721enumerable implemntation"
      },
      "transferFrom(address,address,uint256)": {
        "details": "See {IERC721-transferFrom}."
      },
      "transferOwnership(address)": {
        "details": "Transfers ownership of the contract to a new account (`newOwner`). Can only be called by the current owner."
      }
    },
    "version": 1
  },
  "userdoc": {
    "kind": "user",
    "methods": {
      "__burn(uint256)": {
        "notice": "Internal only"
      },
      "__exists(uint256)": {
        "notice": "Exposing token exists check for base contract"
      },
      "__isApprovedForAll(address,address)": {
        "notice": "internal getter for approval by all When isApprovedForAll is overridden, this can be used to call original impl"
      },
      "__isApprovedOrOwner(address,uint256)": {
        "notice": "Getter for approved or owner"
      },
      "__mint(address,uint256)": {
        "notice": "Internal-only"
      },
      "__owner()": {
        "notice": "internal alias for overrides"
      },
      "__setBaseURI(string,string)": {
        "notice": "Internal-only function to update the base uri"
      },
      "__tokenURI(uint256)": {
        "notice": "internal base override"
      },
      "constructor": {
        "notice": "Constructor called once when the base contract is deployed"
      },
      "deployedBlock()": {
        "notice": "on-chain record of when this contract was deployed"
      },
      "initialize(address,string,string,(uint16,string,string,bool))": {
        "notice": "Initializer that's called when a new child nft is setup"
      },
      "isApprovedForAll(address,address)": {
        "notice": "Getter to expose appoval status to root contract"
      },
      "owner()": {
        "notice": "Simple override for owner interface."
      },
      "royaltyInfo(uint256,uint256)": {
        "notice": "Get royalty information for token ignored token id to get royalty info. able to override and set per-token royalties"
      },
      "supportsInterface(bytes4)": {
        "notice": "IERC165 getter"
      },
      "tokenURI(uint256)": {
        "notice": "Default simple token-uri implementation. works for ipfs folders too"
      }
    },
    "notice": "This smart contract adds features and allows for a ownership only by another smart contract as fallback behavior while also implementing all normal ERC721 functions as expected",
    "version": 1
  },
  "storageLayout": {
    "storage": [
      {
        "astId": 152,
        "contract": "contracts/base/ERC721Base.sol:ERC721Base",
        "label": "_initialized",
        "offset": 0,
        "slot": "0",
        "type": "t_bool"
      },
      {
        "astId": 155,
        "contract": "contracts/base/ERC721Base.sol:ERC721Base",
        "label": "_initializing",
        "offset": 1,
        "slot": "0",
        "type": "t_bool"
      },
      {
        "astId": 1487,
        "contract": "contracts/base/ERC721Base.sol:ERC721Base",
        "label": "__gap",
        "offset": 0,
        "slot": "1",
        "type": "t_array(t_uint256)50_storage"
      },
      {
        "astId": 1810,
        "contract": "contracts/base/ERC721Base.sol:ERC721Base",
        "label": "__gap",
        "offset": 0,
        "slot": "51",
        "type": "t_array(t_uint256)50_storage"
      },
      {
        "astId": 221,
        "contract": "contracts/base/ERC721Base.sol:ERC721Base",
        "label": "_name",
        "offset": 0,
        "slot": "101",
        "type": "t_string_storage"
      },
      {
        "astId": 223,
        "contract": "contracts/base/ERC721Base.sol:ERC721Base",
        "label": "_symbol",
        "offset": 0,
        "slot": "102",
        "type": "t_string_storage"
      },
      {
        "astId": 227,
        "contract": "contracts/base/ERC721Base.sol:ERC721Base",
        "label": "_owners",
        "offset": 0,
        "slot": "103",
        "type": "t_mapping(t_uint256,t_address)"
      },
      {
        "astId": 231,
        "contract": "contracts/base/ERC721Base.sol:ERC721Base",
        "label": "_balances",
        "offset": 0,
        "slot": "104",
        "type": "t_mapping(t_address,t_uint256)"
      },
      {
        "astId": 235,
        "contract": "contracts/base/ERC721Base.sol:ERC721Base",
        "label": "_tokenApprovals",
        "offset": 0,
        "slot": "105",
        "type": "t_mapping(t_uint256,t_address)"
      },
      {
        "astId": 241,
        "contract": "contracts/base/ERC721Base.sol:ERC721Base",
        "label": "_operatorApprovals",
        "offset": 0,
        "slot": "106",
        "type": "t_mapping(t_address,t_mapping(t_address,t_bool))"
      },
      {
        "astId": 1037,
        "contract": "contracts/base/ERC721Base.sol:ERC721Base",
        "label": "__gap",
        "offset": 0,
        "slot": "107",
        "type": "t_array(t_uint256)44_storage"
      },
      {
        "astId": 10,
        "contract": "contracts/base/ERC721Base.sol:ERC721Base",
        "label": "_owner",
        "offset": 0,
        "slot": "151",
        "type": "t_address"
      },
      {
        "astId": 123,
        "contract": "contracts/base/ERC721Base.sol:ERC721Base",
        "label": "__gap",
        "offset": 0,
        "slot": "152",
        "type": "t_array(t_uint256)49_storage"
      },
      {
        "astId": 1863,
        "contract": "contracts/base/ERC721Base.sol:ERC721Base",
        "label": "mintedCounter",
        "offset": 0,
        "slot": "201",
        "type": "t_struct(Counter)1494_storage"
      },
      {
        "astId": 1884,
        "contract": "contracts/base/ERC721Base.sol:ERC721Base",
        "label": "advancedConfig",
        "offset": 0,
        "slot": "202",
        "type": "t_struct(ConfigSettings)1847_storage"
      }
    ],
    "types": {
      "t_address": {
        "encoding": "inplace",
        "label": "address",
        "numberOfBytes": "20"
      },
      "t_array(t_uint256)44_storage": {
        "base": "t_uint256",
        "encoding": "inplace",
        "label": "uint256[44]",
        "numberOfBytes": "1408"
      },
      "t_array(t_uint256)49_storage": {
        "base": "t_uint256",
        "encoding": "inplace",
        "label": "uint256[49]",
        "numberOfBytes": "1568"
      },
      "t_array(t_uint256)50_storage": {
        "base": "t_uint256",
        "encoding": "inplace",
        "label": "uint256[50]",
        "numberOfBytes": "1600"
      },
      "t_bool": {
        "encoding": "inplace",
        "label": "bool",
        "numberOfBytes": "1"
      },
      "t_mapping(t_address,t_bool)": {
        "encoding": "mapping",
        "key": "t_address",
        "label": "mapping(address => bool)",
        "numberOfBytes": "32",
        "value": "t_bool"
      },
      "t_mapping(t_address,t_mapping(t_address,t_bool))": {
        "encoding": "mapping",
        "key": "t_address",
        "label": "mapping(address => mapping(address => bool))",
        "numberOfBytes": "32",
        "value": "t_mapping(t_address,t_bool)"
      },
      "t_mapping(t_address,t_uint256)": {
        "encoding": "mapping",
        "key": "t_address",
        "label": "mapping(address => uint256)",
        "numberOfBytes": "32",
        "value": "t_uint256"
      },
      "t_mapping(t_uint256,t_address)": {
        "encoding": "mapping",
        "key": "t_uint256",
        "label": "mapping(uint256 => address)",
        "numberOfBytes": "32",
        "value": "t_address"
      },
      "t_string_storage": {
        "encoding": "bytes",
        "label": "string",
        "numberOfBytes": "32"
      },
      "t_struct(ConfigSettings)1847_storage": {
        "encoding": "inplace",
        "label": "struct ConfigSettings",
        "members": [
          {
            "astId": 1840,
            "contract": "contracts/base/ERC721Base.sol:ERC721Base",
            "label": "royaltyBps",
            "offset": 0,
            "slot": "0",
            "type": "t_uint16"
          },
          {
            "astId": 1842,
            "contract": "contracts/base/ERC721Base.sol:ERC721Base",
            "label": "uriBase",
            "offset": 0,
            "slot": "1",
            "type": "t_string_storage"
          },
          {
            "astId": 1844,
            "contract": "contracts/base/ERC721Base.sol:ERC721Base",
            "label": "uriExtension",
            "offset": 0,
            "slot": "2",
            "type": "t_string_storage"
          },
          {
            "astId": 1846,
            "contract": "contracts/base/ERC721Base.sol:ERC721Base",
            "label": "hasTransferHook",
            "offset": 0,
            "slot": "3",
            "type": "t_bool"
          }
        ],
        "numberOfBytes": "128"
      },
      "t_struct(Counter)1494_storage": {
        "encoding": "inplace",
        "label": "struct CountersUpgradeable.Counter",
        "members": [
          {
            "astId": 1493,
            "contract": "contracts/base/ERC721Base.sol:ERC721Base",
            "label": "_value",
            "offset": 0,
            "slot": "0",
            "type": "t_uint256"
          }
        ],
        "numberOfBytes": "32"
      },
      "t_uint16": {
        "encoding": "inplace",
        "label": "uint16",
        "numberOfBytes": "2"
      },
      "t_uint256": {
        "encoding": "inplace",
        "label": "uint256",
        "numberOfBytes": "32"
      }
    }
  }
}